{
  "_format": "hh-sol-artifact-1",
  "contractName": "KelvinNFT",
  "sourceName": "contracts/MyNFT.sol",
  "abi": [
    {
      "inputs": [],
      "stateMutability": "nonpayable",
      "type": "constructor"
    },
    {
      "anonymous": false,
      "inputs": [
        {
          "indexed": true,
          "internalType": "address",
          "name": "owner",
          "type": "address"
        },
        {
          "indexed": true,
          "internalType": "address",
          "name": "approved",
          "type": "address"
        },
        {
          "indexed": true,
          "internalType": "uint256",
          "name": "tokenId",
          "type": "uint256"
        }
      ],
      "name": "Approval",
      "type": "event"
    },
    {
      "anonymous": false,
      "inputs": [
        {
          "indexed": true,
          "internalType": "address",
          "name": "owner",
          "type": "address"
        },
        {
          "indexed": true,
          "internalType": "address",
          "name": "operator",
          "type": "address"
        },
        {
          "indexed": false,
          "internalType": "bool",
          "name": "approved",
          "type": "bool"
        }
      ],
      "name": "ApprovalForAll",
      "type": "event"
    },
    {
      "anonymous": false,
      "inputs": [
        {
          "indexed": true,
          "internalType": "address",
          "name": "previousOwner",
          "type": "address"
        },
        {
          "indexed": true,
          "internalType": "address",
          "name": "newOwner",
          "type": "address"
        }
      ],
      "name": "OwnershipTransferred",
      "type": "event"
    },
    {
      "anonymous": false,
      "inputs": [
        {
          "indexed": true,
          "internalType": "address",
          "name": "from",
          "type": "address"
        },
        {
          "indexed": true,
          "internalType": "address",
          "name": "to",
          "type": "address"
        },
        {
          "indexed": true,
          "internalType": "uint256",
          "name": "tokenId",
          "type": "uint256"
        }
      ],
      "name": "Transfer",
      "type": "event"
    },
    {
      "inputs": [
        {
          "internalType": "address",
          "name": "to",
          "type": "address"
        },
        {
          "internalType": "uint256",
          "name": "tokenId",
          "type": "uint256"
        }
      ],
      "name": "approve",
      "outputs": [],
      "stateMutability": "nonpayable",
      "type": "function"
    },
    {
      "inputs": [
        {
          "internalType": "address",
          "name": "owner",
          "type": "address"
        }
      ],
      "name": "balanceOf",
      "outputs": [
        {
          "internalType": "uint256",
          "name": "",
          "type": "uint256"
        }
      ],
      "stateMutability": "view",
      "type": "function"
    },
    {
      "inputs": [
        {
          "internalType": "uint256",
          "name": "tokenId",
          "type": "uint256"
        }
      ],
      "name": "getApproved",
      "outputs": [
        {
          "internalType": "address",
          "name": "",
          "type": "address"
        }
      ],
      "stateMutability": "view",
      "type": "function"
    },
    {
      "inputs": [],
      "name": "getLastId",
      "outputs": [
        {
          "internalType": "uint256",
          "name": "",
          "type": "uint256"
        }
      ],
      "stateMutability": "view",
      "type": "function"
    },
    {
      "inputs": [
        {
          "internalType": "address",
          "name": "owner",
          "type": "address"
        },
        {
          "internalType": "address",
          "name": "operator",
          "type": "address"
        }
      ],
      "name": "isApprovedForAll",
      "outputs": [
        {
          "internalType": "bool",
          "name": "",
          "type": "bool"
        }
      ],
      "stateMutability": "view",
      "type": "function"
    },
    {
      "inputs": [
        {
          "internalType": "address",
          "name": "recipient",
          "type": "address"
        },
        {
          "internalType": "string",
          "name": "tokenURI",
          "type": "string"
        },
        {
          "internalType": "address",
          "name": "royaltyRecipient",
          "type": "address"
        },
        {
          "internalType": "uint256",
          "name": "royaltyValue",
          "type": "uint256"
        }
      ],
      "name": "mintNFT",
      "outputs": [
        {
          "internalType": "uint256",
          "name": "",
          "type": "uint256"
        }
      ],
      "stateMutability": "nonpayable",
      "type": "function"
    },
    {
      "inputs": [],
      "name": "name",
      "outputs": [
        {
          "internalType": "string",
          "name": "",
          "type": "string"
        }
      ],
      "stateMutability": "view",
      "type": "function"
    },
    {
      "inputs": [],
      "name": "owner",
      "outputs": [
        {
          "internalType": "address",
          "name": "",
          "type": "address"
        }
      ],
      "stateMutability": "view",
      "type": "function"
    },
    {
      "inputs": [
        {
          "internalType": "uint256",
          "name": "tokenId",
          "type": "uint256"
        }
      ],
      "name": "ownerOf",
      "outputs": [
        {
          "internalType": "address",
          "name": "",
          "type": "address"
        }
      ],
      "stateMutability": "view",
      "type": "function"
    },
    {
      "inputs": [],
      "name": "renounceOwnership",
      "outputs": [],
      "stateMutability": "nonpayable",
      "type": "function"
    },
    {
      "inputs": [
        {
          "internalType": "uint256",
          "name": "tokenId",
          "type": "uint256"
        },
        {
          "internalType": "uint256",
          "name": "value",
          "type": "uint256"
        }
      ],
      "name": "royaltyInfo",
      "outputs": [
        {
          "internalType": "address",
          "name": "receiver",
          "type": "address"
        },
        {
          "internalType": "uint256",
          "name": "royaltyAmount",
          "type": "uint256"
        }
      ],
      "stateMutability": "view",
      "type": "function"
    },
    {
      "inputs": [
        {
          "internalType": "address",
          "name": "from",
          "type": "address"
        },
        {
          "internalType": "address",
          "name": "to",
          "type": "address"
        },
        {
          "internalType": "uint256",
          "name": "tokenId",
          "type": "uint256"
        }
      ],
      "name": "safeTransferFrom",
      "outputs": [],
      "stateMutability": "nonpayable",
      "type": "function"
    },
    {
      "inputs": [
        {
          "internalType": "address",
          "name": "from",
          "type": "address"
        },
        {
          "internalType": "address",
          "name": "to",
          "type": "address"
        },
        {
          "internalType": "uint256",
          "name": "tokenId",
          "type": "uint256"
        },
        {
          "internalType": "bytes",
          "name": "_data",
          "type": "bytes"
        }
      ],
      "name": "safeTransferFrom",
      "outputs": [],
      "stateMutability": "nonpayable",
      "type": "function"
    },
    {
      "inputs": [
        {
          "internalType": "address",
          "name": "operator",
          "type": "address"
        },
        {
          "internalType": "bool",
          "name": "approved",
          "type": "bool"
        }
      ],
      "name": "setApprovalForAll",
      "outputs": [],
      "stateMutability": "nonpayable",
      "type": "function"
    },
    {
      "inputs": [
        {
          "internalType": "bytes4",
          "name": "interfaceId",
          "type": "bytes4"
        }
      ],
      "name": "supportsInterface",
      "outputs": [
        {
          "internalType": "bool",
          "name": "",
          "type": "bool"
        }
      ],
      "stateMutability": "view",
      "type": "function"
    },
    {
      "inputs": [],
      "name": "symbol",
      "outputs": [
        {
          "internalType": "string",
          "name": "",
          "type": "string"
        }
      ],
      "stateMutability": "view",
      "type": "function"
    },
    {
      "inputs": [
        {
          "internalType": "uint256",
          "name": "tokenId",
          "type": "uint256"
        }
      ],
      "name": "tokenURI",
      "outputs": [
        {
          "internalType": "string",
          "name": "",
          "type": "string"
        }
      ],
      "stateMutability": "view",
      "type": "function"
    },
    {
      "inputs": [
        {
          "internalType": "address",
          "name": "from",
          "type": "address"
        },
        {
          "internalType": "address",
          "name": "recipient",
          "type": "address"
        }
      ],
      "name": "transfer",
      "outputs": [],
      "stateMutability": "nonpayable",
      "type": "function"
    },
    {
      "inputs": [
        {
          "internalType": "address",
          "name": "from",
          "type": "address"
        },
        {
          "internalType": "address",
          "name": "to",
          "type": "address"
        },
        {
          "internalType": "uint256",
          "name": "tokenId",
          "type": "uint256"
        }
      ],
      "name": "transferFrom",
      "outputs": [],
      "stateMutability": "nonpayable",
      "type": "function"
    },
    {
      "inputs": [
        {
          "internalType": "address",
          "name": "newOwner",
          "type": "address"
        }
      ],
      "name": "transferOwnership",
      "outputs": [],
      "stateMutability": "nonpayable",
      "type": "function"
    }
  ],
  "bytecode": "0x60806040523480156200001157600080fd5b506040518060400160405280600981526020017f4b656c76696e4e465400000000000000000000000000000000000000000000008152506040518060400160405280600481526020017f4b4e465400000000000000000000000000000000000000000000000000000000815250816000908051906020019062000096929190620001a6565b508060019080519060200190620000af929190620001a6565b505050620000d2620000c6620000d860201b60201c565b620000e060201b60201c565b620002bb565b600033905090565b6000600760009054906101000a900473ffffffffffffffffffffffffffffffffffffffff16905081600760006101000a81548173ffffffffffffffffffffffffffffffffffffffff021916908373ffffffffffffffffffffffffffffffffffffffff1602179055508173ffffffffffffffffffffffffffffffffffffffff168173ffffffffffffffffffffffffffffffffffffffff167f8be0079c531659141344cd1fd0a4f28419497f9722a3daafe3b4186f6b6457e060405160405180910390a35050565b828054620001b49062000256565b90600052602060002090601f016020900481019282620001d8576000855562000224565b82601f10620001f357805160ff191683800117855562000224565b8280016001018555821562000224579182015b828111156200022357825182559160200191906001019062000206565b5b50905062000233919062000237565b5090565b5b808211156200025257600081600090555060010162000238565b5090565b600060028204905060018216806200026f57607f821691505b602082108114156200028657620002856200028c565b5b50919050565b7f4e487b7100000000000000000000000000000000000000000000000000000000600052602260045260246000fd5b61348c80620002cb6000396000f3fe608060405234801561001057600080fd5b506004361061012c5760003560e01c80638da5cb5b116100ad578063ba45b0b811610071578063ba45b0b814610330578063c87b56dd1461034c578063e3e3da891461037c578063e985e9c5146103ac578063f2fde38b146103dc5761012c565b80638da5cb5b1461029e57806395d89b41146102bc578063a22cb465146102da578063a8e5862d146102f6578063b88d4fde146103145761012c565b80632a55205a116100f45780632a55205a146101e757806342842e0e146102185780636352211e1461023457806370a0823114610264578063715018a6146102945761012c565b806301ffc9a71461013157806306fdde0314610161578063081812fc1461017f578063095ea7b3146101af57806323b872dd146101cb575b600080fd5b61014b6004803603810190610146919061241b565b6103f8565b6040516101589190612d2a565b60405180910390f35b61016961040a565b6040516101769190612d45565b60405180910390f35b6101996004803603810190610194919061246d565b61049c565b6040516101a69190612c9a565b60405180910390f35b6101c960048036038101906101c491906123df565b610521565b005b6101e560048036038101906101e0919061225e565b610639565b005b61020160048036038101906101fc9190612496565b610699565b60405161020f929190612d01565b60405180910390f35b610232600480360381019061022d919061225e565b61076a565b005b61024e6004803603810190610249919061246d565b61078a565b60405161025b9190612c9a565b60405180910390f35b61027e600480360381019061027991906121f9565b61083c565b60405161028b9190612fc7565b60405180910390f35b61029c6108f4565b005b6102a661097c565b6040516102b39190612c9a565b60405180910390f35b6102c46109a6565b6040516102d19190612d45565b60405180910390f35b6102f460048036038101906102ef9190612328565b610a38565b005b6102fe610a4e565b60405161030b9190612fc7565b60405180910390f35b61032e600480360381019061032991906122ad565b610adb565b005b61034a60048036038101906103459190612222565b610b3d565b005b6103666004803603810190610361919061246d565b610bd1565b6040516103739190612d45565b60405180910390f35b61039660048036038101906103919190612364565b610d23565b6040516103a39190612fc7565b60405180910390f35b6103c660048036038101906103c19190612222565b610dfe565b6040516103d39190612d2a565b60405180910390f35b6103f660048036038101906103f191906121f9565b610e92565b005b600061040382610f8a565b9050919050565b60606000805461041990613281565b80601f016020809104026020016040519081016040528092919081815260200182805461044590613281565b80156104925780601f1061046757610100808354040283529160200191610492565b820191906000526020600020905b81548152906001019060200180831161047557829003601f168201915b5050505050905090565b60006104a782611004565b6104e6576040517f08c379a00000000000000000000000000000000000000000000000000000000081526004016104dd90612f07565b60405180910390fd5b6004600083815260200190815260200160002060009054906101000a900473ffffffffffffffffffffffffffffffffffffffff169050919050565b600061052c8261078a565b90508073ffffffffffffffffffffffffffffffffffffffff168373ffffffffffffffffffffffffffffffffffffffff16141561059d576040517f08c379a000000000000000000000000000000000000000000000000000000000815260040161059490612f87565b60405180910390fd5b8073ffffffffffffffffffffffffffffffffffffffff166105bc611070565b73ffffffffffffffffffffffffffffffffffffffff1614806105eb57506105ea816105e5611070565b610dfe565b5b61062a576040517f08c379a000000000000000000000000000000000000000000000000000000000815260040161062190612e47565b60405180910390fd5b6106348383611078565b505050565b61064a610644611070565b82611131565b610689576040517f08c379a000000000000000000000000000000000000000000000000000000000815260040161068090612fa7565b60405180910390fd5b61069483838361120f565b505050565b6000806000600860008681526020019081526020016000206040518060400160405290816000820160009054906101000a900473ffffffffffffffffffffffffffffffffffffffff1673ffffffffffffffffffffffffffffffffffffffff1673ffffffffffffffffffffffffffffffffffffffff1681526020016000820160149054906101000a900462ffffff1662ffffff1662ffffff1681525050905080600001519250612710816020015162ffffff1685610756919061313d565b610760919061310c565b9150509250929050565b61078583838360405180602001604052806000815250610adb565b505050565b6000806002600084815260200190815260200160002060009054906101000a900473ffffffffffffffffffffffffffffffffffffffff169050600073ffffffffffffffffffffffffffffffffffffffff168173ffffffffffffffffffffffffffffffffffffffff161415610833576040517f08c379a000000000000000000000000000000000000000000000000000000000815260040161082a90612e87565b60405180910390fd5b80915050919050565b60008073ffffffffffffffffffffffffffffffffffffffff168273ffffffffffffffffffffffffffffffffffffffff1614156108ad576040517f08c379a00000000000000000000000000000000000000000000000000000000081526004016108a490612e67565b60405180910390fd5b600360008373ffffffffffffffffffffffffffffffffffffffff1673ffffffffffffffffffffffffffffffffffffffff168152602001908152602001600020549050919050565b6108fc611070565b73ffffffffffffffffffffffffffffffffffffffff1661091a61097c565b73ffffffffffffffffffffffffffffffffffffffff1614610970576040517f08c379a000000000000000000000000000000000000000000000000000000000815260040161096790612f27565b60405180910390fd5b61097a600061146b565b565b6000600760009054906101000a900473ffffffffffffffffffffffffffffffffffffffff16905090565b6060600180546109b590613281565b80601f01602080910402602001604051908101604052809291908181526020018280546109e190613281565b8015610a2e5780601f10610a0357610100808354040283529160200191610a2e565b820191906000526020600020905b815481529060010190602001808311610a1157829003601f168201915b5050505050905090565b610a4a610a43611070565b8383611531565b5050565b6000610a58611070565b73ffffffffffffffffffffffffffffffffffffffff16610a7661097c565b73ffffffffffffffffffffffffffffffffffffffff1614610acc576040517f08c379a0000000000000000000000000000000000000000000000000000000008152600401610ac390612f27565b60405180910390fd5b610ad6600961169e565b905090565b610aec610ae6611070565b83611131565b610b2b576040517f08c379a0000000000000000000000000000000000000000000000000000000008152600401610b2290612fa7565b60405180910390fd5b610b37848484846116ac565b50505050565b610b45611070565b73ffffffffffffffffffffffffffffffffffffffff16610b6361097c565b73ffffffffffffffffffffffffffffffffffffffff1614610bb9576040517f08c379a0000000000000000000000000000000000000000000000000000000008152600401610bb090612f27565b60405180910390fd5b610bcd8282610bc8600961169e565b61076a565b5050565b6060610bdc82611004565b610c1b576040517f08c379a0000000000000000000000000000000000000000000000000000000008152600401610c1290612ee7565b60405180910390fd5b6000600660008481526020019081526020016000208054610c3b90613281565b80601f0160208091040260200160405190810160405280929190818152602001828054610c6790613281565b8015610cb45780601f10610c8957610100808354040283529160200191610cb4565b820191906000526020600020905b815481529060010190602001808311610c9757829003601f168201915b505050505090506000610cc5611708565b9050600081511415610cdb578192505050610d1e565b600082511115610d10578082604051602001610cf8929190612c76565b60405160208183030381529060405292505050610d1e565b610d198461171f565b925050505b919050565b6000610d2d611070565b73ffffffffffffffffffffffffffffffffffffffff16610d4b61097c565b73ffffffffffffffffffffffffffffffffffffffff1614610da1576040517f08c379a0000000000000000000000000000000000000000000000000000000008152600401610d9890612f27565b60405180910390fd5b610dab60096117c6565b6000610db7600961169e565b9050610dd38682604051806020016040528060008152506117dc565b610ddd8186611837565b6000831115610df257610df18185856118ab565b5b80915050949350505050565b6000600560008473ffffffffffffffffffffffffffffffffffffffff1673ffffffffffffffffffffffffffffffffffffffff16815260200190815260200160002060008373ffffffffffffffffffffffffffffffffffffffff1673ffffffffffffffffffffffffffffffffffffffff16815260200190815260200160002060009054906101000a900460ff16905092915050565b610e9a611070565b73ffffffffffffffffffffffffffffffffffffffff16610eb861097c565b73ffffffffffffffffffffffffffffffffffffffff1614610f0e576040517f08c379a0000000000000000000000000000000000000000000000000000000008152600401610f0590612f27565b60405180910390fd5b600073ffffffffffffffffffffffffffffffffffffffff168173ffffffffffffffffffffffffffffffffffffffff161415610f7e576040517f08c379a0000000000000000000000000000000000000000000000000000000008152600401610f7590612da7565b60405180910390fd5b610f878161146b565b50565b60007f2a55205a000000000000000000000000000000000000000000000000000000007bffffffffffffffffffffffffffffffffffffffffffffffffffffffff1916827bffffffffffffffffffffffffffffffffffffffffffffffffffffffff19161480610ffd5750610ffc826119a7565b5b9050919050565b60008073ffffffffffffffffffffffffffffffffffffffff166002600084815260200190815260200160002060009054906101000a900473ffffffffffffffffffffffffffffffffffffffff1673ffffffffffffffffffffffffffffffffffffffff1614159050919050565b600033905090565b816004600083815260200190815260200160002060006101000a81548173ffffffffffffffffffffffffffffffffffffffff021916908373ffffffffffffffffffffffffffffffffffffffff160217905550808273ffffffffffffffffffffffffffffffffffffffff166110eb8361078a565b73ffffffffffffffffffffffffffffffffffffffff167f8c5be1e5ebec7d5bd14f71427d1e84f3dd0314c0f7b2291e5b200ac8c7c3b92560405160405180910390a45050565b600061113c82611004565b61117b576040517f08c379a000000000000000000000000000000000000000000000000000000000815260040161117290612e27565b60405180910390fd5b60006111868361078a565b90508073ffffffffffffffffffffffffffffffffffffffff168473ffffffffffffffffffffffffffffffffffffffff1614806111f557508373ffffffffffffffffffffffffffffffffffffffff166111dd8461049c565b73ffffffffffffffffffffffffffffffffffffffff16145b8061120657506112058185610dfe565b5b91505092915050565b8273ffffffffffffffffffffffffffffffffffffffff1661122f8261078a565b73ffffffffffffffffffffffffffffffffffffffff1614611285576040517f08c379a000000000000000000000000000000000000000000000000000000000815260040161127c90612f47565b60405180910390fd5b600073ffffffffffffffffffffffffffffffffffffffff168273ffffffffffffffffffffffffffffffffffffffff1614156112f5576040517f08c379a00000000000000000000000000000000000000000000000000000000081526004016112ec90612de7565b60405180910390fd5b611300838383611a89565b61130b600082611078565b6001600360008573ffffffffffffffffffffffffffffffffffffffff1673ffffffffffffffffffffffffffffffffffffffff168152602001908152602001600020600082825461135b9190613197565b925050819055506001600360008473ffffffffffffffffffffffffffffffffffffffff1673ffffffffffffffffffffffffffffffffffffffff16815260200190815260200160002060008282546113b291906130b6565b92505081905550816002600083815260200190815260200160002060006101000a81548173ffffffffffffffffffffffffffffffffffffffff021916908373ffffffffffffffffffffffffffffffffffffffff160217905550808273ffffffffffffffffffffffffffffffffffffffff168473ffffffffffffffffffffffffffffffffffffffff167fddf252ad1be2c89b69c2b068fc378daa952ba7f163c4a11628f55a4df523b3ef60405160405180910390a4505050565b6000600760009054906101000a900473ffffffffffffffffffffffffffffffffffffffff16905081600760006101000a81548173ffffffffffffffffffffffffffffffffffffffff021916908373ffffffffffffffffffffffffffffffffffffffff1602179055508173ffffffffffffffffffffffffffffffffffffffff168173ffffffffffffffffffffffffffffffffffffffff167f8be0079c531659141344cd1fd0a4f28419497f9722a3daafe3b4186f6b6457e060405160405180910390a35050565b8173ffffffffffffffffffffffffffffffffffffffff168373ffffffffffffffffffffffffffffffffffffffff1614156115a0576040517f08c379a000000000000000000000000000000000000000000000000000000000815260040161159790612e07565b60405180910390fd5b80600560008573ffffffffffffffffffffffffffffffffffffffff1673ffffffffffffffffffffffffffffffffffffffff16815260200190815260200160002060008473ffffffffffffffffffffffffffffffffffffffff1673ffffffffffffffffffffffffffffffffffffffff16815260200190815260200160002060006101000a81548160ff0219169083151502179055508173ffffffffffffffffffffffffffffffffffffffff168373ffffffffffffffffffffffffffffffffffffffff167f17307eab39ab6107e8899845ad3d59bd9653f200f220920489ca2b5937696c31836040516116919190612d2a565b60405180910390a3505050565b600081600001549050919050565b6116b784848461120f565b6116c384848484611a8e565b611702576040517f08c379a00000000000000000000000000000000000000000000000000000000081526004016116f990612d87565b60405180910390fd5b50505050565b606060405180602001604052806000815250905090565b606061172a82611004565b611769576040517f08c379a000000000000000000000000000000000000000000000000000000000815260040161176090612f67565b60405180910390fd5b6000611773611708565b9050600081511161179357604051806020016040528060008152506117be565b8061179d84611c25565b6040516020016117ae929190612c76565b6040516020818303038152906040525b915050919050565b6001816000016000828254019250508190555050565b6117e68383611dd2565b6117f36000848484611a8e565b611832576040517f08c379a000000000000000000000000000000000000000000000000000000000815260040161182990612d87565b60405180910390fd5b505050565b61184082611004565b61187f576040517f08c379a000000000000000000000000000000000000000000000000000000000815260040161187690612ea7565b60405180910390fd5b806006600084815260200190815260200160002090805190602001906118a692919061201d565b505050565b6127108111156118f0576040517f08c379a00000000000000000000000000000000000000000000000000000000081526004016118e790612d67565b60405180910390fd5b60405180604001604052808373ffffffffffffffffffffffffffffffffffffffff1681526020018262ffffff168152506008600085815260200190815260200160002060008201518160000160006101000a81548173ffffffffffffffffffffffffffffffffffffffff021916908373ffffffffffffffffffffffffffffffffffffffff16021790555060208201518160000160146101000a81548162ffffff021916908362ffffff160217905550905050505050565b60007f80ac58cd000000000000000000000000000000000000000000000000000000007bffffffffffffffffffffffffffffffffffffffffffffffffffffffff1916827bffffffffffffffffffffffffffffffffffffffffffffffffffffffff19161480611a7257507f5b5e139f000000000000000000000000000000000000000000000000000000007bffffffffffffffffffffffffffffffffffffffffffffffffffffffff1916827bffffffffffffffffffffffffffffffffffffffffffffffffffffffff1916145b80611a825750611a8182611fa0565b5b9050919050565b505050565b6000611aaf8473ffffffffffffffffffffffffffffffffffffffff1661200a565b15611c18578373ffffffffffffffffffffffffffffffffffffffff1663150b7a02611ad8611070565b8786866040518563ffffffff1660e01b8152600401611afa9493929190612cb5565b602060405180830381600087803b158015611b1457600080fd5b505af1925050508015611b4557506040513d601f19601f82011682018060405250810190611b429190612444565b60015b611bc8573d8060008114611b75576040519150601f19603f3d011682016040523d82523d6000602084013e611b7a565b606091505b50600081511415611bc0576040517f08c379a0000000000000000000000000000000000000000000000000000000008152600401611bb790612d87565b60405180910390fd5b805181602001fd5b63150b7a0260e01b7bffffffffffffffffffffffffffffffffffffffffffffffffffffffff1916817bffffffffffffffffffffffffffffffffffffffffffffffffffffffff191614915050611c1d565b600190505b949350505050565b60606000821415611c6d576040518060400160405280600181526020017f30000000000000000000000000000000000000000000000000000000000000008152509050611dcd565b600082905060005b60008214611c9f578080611c88906132b3565b915050600a82611c98919061310c565b9150611c75565b60008167ffffffffffffffff811115611ce1577f4e487b7100000000000000000000000000000000000000000000000000000000600052604160045260246000fd5b6040519080825280601f01601f191660200182016040528015611d135781602001600182028036833780820191505090505b5090505b60008514611dc657600182611d2c9190613197565b9150600a85611d3b91906132fc565b6030611d4791906130b6565b60f81b818381518110611d83577f4e487b7100000000000000000000000000000000000000000000000000000000600052603260045260246000fd5b60200101907effffffffffffffffffffffffffffffffffffffffffffffffffffffffffffff1916908160001a905350600a85611dbf919061310c565b9450611d17565b8093505050505b919050565b600073ffffffffffffffffffffffffffffffffffffffff168273ffffffffffffffffffffffffffffffffffffffff161415611e42576040517f08c379a0000000000000000000000000000000000000000000000000000000008152600401611e3990612ec7565b60405180910390fd5b611e4b81611004565b15611e8b576040517f08c379a0000000000000000000000000000000000000000000000000000000008152600401611e8290612dc7565b60405180910390fd5b611e9760008383611a89565b6001600360008473ffffffffffffffffffffffffffffffffffffffff1673ffffffffffffffffffffffffffffffffffffffff1681526020019081526020016000206000828254611ee791906130b6565b92505081905550816002600083815260200190815260200160002060006101000a81548173ffffffffffffffffffffffffffffffffffffffff021916908373ffffffffffffffffffffffffffffffffffffffff160217905550808273ffffffffffffffffffffffffffffffffffffffff16600073ffffffffffffffffffffffffffffffffffffffff167fddf252ad1be2c89b69c2b068fc378daa952ba7f163c4a11628f55a4df523b3ef60405160405180910390a45050565b60007f01ffc9a7000000000000000000000000000000000000000000000000000000007bffffffffffffffffffffffffffffffffffffffffffffffffffffffff1916827bffffffffffffffffffffffffffffffffffffffffffffffffffffffff1916149050919050565b600080823b905060008111915050919050565b82805461202990613281565b90600052602060002090601f01602090048101928261204b5760008555612092565b82601f1061206457805160ff1916838001178555612092565b82800160010185558215612092579182015b82811115612091578251825591602001919060010190612076565b5b50905061209f91906120a3565b5090565b5b808211156120bc5760008160009055506001016120a4565b5090565b60006120d36120ce84613013565b612fe2565b9050828152602081018484840111156120eb57600080fd5b6120f684828561323f565b509392505050565b600061211161210c84613043565b612fe2565b90508281526020810184848401111561212957600080fd5b61213484828561323f565b509392505050565b60008135905061214b816133fa565b92915050565b60008135905061216081613411565b92915050565b60008135905061217581613428565b92915050565b60008151905061218a81613428565b92915050565b600082601f8301126121a157600080fd5b81356121b18482602086016120c0565b91505092915050565b600082601f8301126121cb57600080fd5b81356121db8482602086016120fe565b91505092915050565b6000813590506121f38161343f565b92915050565b60006020828403121561220b57600080fd5b60006122198482850161213c565b91505092915050565b6000806040838503121561223557600080fd5b60006122438582860161213c565b92505060206122548582860161213c565b9150509250929050565b60008060006060848603121561227357600080fd5b60006122818682870161213c565b93505060206122928682870161213c565b92505060406122a3868287016121e4565b9150509250925092565b600080600080608085870312156122c357600080fd5b60006122d18782880161213c565b94505060206122e28782880161213c565b93505060406122f3878288016121e4565b925050606085013567ffffffffffffffff81111561231057600080fd5b61231c87828801612190565b91505092959194509250565b6000806040838503121561233b57600080fd5b60006123498582860161213c565b925050602061235a85828601612151565b9150509250929050565b6000806000806080858703121561237a57600080fd5b60006123888782880161213c565b945050602085013567ffffffffffffffff8111156123a557600080fd5b6123b1878288016121ba565b93505060406123c28782880161213c565b92505060606123d3878288016121e4565b91505092959194509250565b600080604083850312156123f257600080fd5b60006124008582860161213c565b9250506020612411858286016121e4565b9150509250929050565b60006020828403121561242d57600080fd5b600061243b84828501612166565b91505092915050565b60006020828403121561245657600080fd5b60006124648482850161217b565b91505092915050565b60006020828403121561247f57600080fd5b600061248d848285016121e4565b91505092915050565b600080604083850312156124a957600080fd5b60006124b7858286016121e4565b92505060206124c8858286016121e4565b9150509250929050565b6124db816131cb565b82525050565b6124ea816131dd565b82525050565b60006124fb82613073565b6125058185613089565b935061251581856020860161324e565b61251e816133e9565b840191505092915050565b60006125348261307e565b61253e818561309a565b935061254e81856020860161324e565b612557816133e9565b840191505092915050565b600061256d8261307e565b61257781856130ab565b935061258781856020860161324e565b80840191505092915050565b60006125a0601a8361309a565b91507f45524332393831526f79616c746965733a20546f6f20686967680000000000006000830152602082019050919050565b60006125e060328361309a565b91507f4552433732313a207472616e7366657220746f206e6f6e20455243373231526560008301527f63656976657220696d706c656d656e74657200000000000000000000000000006020830152604082019050919050565b600061264660268361309a565b91507f4f776e61626c653a206e6577206f776e657220697320746865207a65726f206160008301527f64647265737300000000000000000000000000000000000000000000000000006020830152604082019050919050565b60006126ac601c8361309a565b91507f4552433732313a20746f6b656e20616c7265616479206d696e746564000000006000830152602082019050919050565b60006126ec60248361309a565b91507f4552433732313a207472616e7366657220746f20746865207a65726f2061646460008301527f72657373000000000000000000000000000000000000000000000000000000006020830152604082019050919050565b600061275260198361309a565b91507f4552433732313a20617070726f766520746f2063616c6c6572000000000000006000830152602082019050919050565b6000612792602c8361309a565b91507f4552433732313a206f70657261746f7220717565727920666f72206e6f6e657860008301527f697374656e7420746f6b656e00000000000000000000000000000000000000006020830152604082019050919050565b60006127f860388361309a565b91507f4552433732313a20617070726f76652063616c6c6572206973206e6f74206f7760008301527f6e6572206e6f7220617070726f76656420666f7220616c6c00000000000000006020830152604082019050919050565b600061285e602a8361309a565b91507f4552433732313a2062616c616e636520717565727920666f7220746865207a6560008301527f726f2061646472657373000000000000000000000000000000000000000000006020830152604082019050919050565b60006128c460298361309a565b91507f4552433732313a206f776e657220717565727920666f72206e6f6e657869737460008301527f656e7420746f6b656e00000000000000000000000000000000000000000000006020830152604082019050919050565b600061292a602e8361309a565b91507f45524337323155524953746f726167653a2055524920736574206f66206e6f6e60008301527f6578697374656e7420746f6b656e0000000000000000000000000000000000006020830152604082019050919050565b600061299060208361309a565b91507f4552433732313a206d696e7420746f20746865207a65726f20616464726573736000830152602082019050919050565b60006129d060318361309a565b91507f45524337323155524953746f726167653a2055524920717565727920666f722060008301527f6e6f6e6578697374656e7420746f6b656e0000000000000000000000000000006020830152604082019050919050565b6000612a36602c8361309a565b91507f4552433732313a20617070726f76656420717565727920666f72206e6f6e657860008301527f697374656e7420746f6b656e00000000000000000000000000000000000000006020830152604082019050919050565b6000612a9c60208361309a565b91507f4f776e61626c653a2063616c6c6572206973206e6f7420746865206f776e65726000830152602082019050919050565b6000612adc60298361309a565b91507f4552433732313a207472616e73666572206f6620746f6b656e2074686174206960008301527f73206e6f74206f776e00000000000000000000000000000000000000000000006020830152604082019050919050565b6000612b42602f8361309a565b91507f4552433732314d657461646174613a2055524920717565727920666f72206e6f60008301527f6e6578697374656e7420746f6b656e00000000000000000000000000000000006020830152604082019050919050565b6000612ba860218361309a565b91507f4552433732313a20617070726f76616c20746f2063757272656e74206f776e6560008301527f72000000000000000000000000000000000000000000000000000000000000006020830152604082019050919050565b6000612c0e60318361309a565b91507f4552433732313a207472616e736665722063616c6c6572206973206e6f74206f60008301527f776e6572206e6f7220617070726f7665640000000000000000000000000000006020830152604082019050919050565b612c7081613235565b82525050565b6000612c828285612562565b9150612c8e8284612562565b91508190509392505050565b6000602082019050612caf60008301846124d2565b92915050565b6000608082019050612cca60008301876124d2565b612cd760208301866124d2565b612ce46040830185612c67565b8181036060830152612cf681846124f0565b905095945050505050565b6000604082019050612d1660008301856124d2565b612d236020830184612c67565b9392505050565b6000602082019050612d3f60008301846124e1565b92915050565b60006020820190508181036000830152612d5f8184612529565b905092915050565b60006020820190508181036000830152612d8081612593565b9050919050565b60006020820190508181036000830152612da0816125d3565b9050919050565b60006020820190508181036000830152612dc081612639565b9050919050565b60006020820190508181036000830152612de08161269f565b9050919050565b60006020820190508181036000830152612e00816126df565b9050919050565b60006020820190508181036000830152612e2081612745565b9050919050565b60006020820190508181036000830152612e4081612785565b9050919050565b60006020820190508181036000830152612e60816127eb565b9050919050565b60006020820190508181036000830152612e8081612851565b9050919050565b60006020820190508181036000830152612ea0816128b7565b9050919050565b60006020820190508181036000830152612ec08161291d565b9050919050565b60006020820190508181036000830152612ee081612983565b9050919050565b60006020820190508181036000830152612f00816129c3565b9050919050565b60006020820190508181036000830152612f2081612a29565b9050919050565b60006020820190508181036000830152612f4081612a8f565b9050919050565b60006020820190508181036000830152612f6081612acf565b9050919050565b60006020820190508181036000830152612f8081612b35565b9050919050565b60006020820190508181036000830152612fa081612b9b565b9050919050565b60006020820190508181036000830152612fc081612c01565b9050919050565b6000602082019050612fdc6000830184612c67565b92915050565b6000604051905081810181811067ffffffffffffffff82111715613009576130086133ba565b5b8060405250919050565b600067ffffffffffffffff82111561302e5761302d6133ba565b5b601f19601f8301169050602081019050919050565b600067ffffffffffffffff82111561305e5761305d6133ba565b5b601f19601f8301169050602081019050919050565b600081519050919050565b600081519050919050565b600082825260208201905092915050565b600082825260208201905092915050565b600081905092915050565b60006130c182613235565b91506130cc83613235565b9250827fffffffffffffffffffffffffffffffffffffffffffffffffffffffffffffffff038211156131015761310061332d565b5b828201905092915050565b600061311782613235565b915061312283613235565b9250826131325761313161335c565b5b828204905092915050565b600061314882613235565b915061315383613235565b9250817fffffffffffffffffffffffffffffffffffffffffffffffffffffffffffffffff048311821515161561318c5761318b61332d565b5b828202905092915050565b60006131a282613235565b91506131ad83613235565b9250828210156131c0576131bf61332d565b5b828203905092915050565b60006131d682613215565b9050919050565b60008115159050919050565b60007fffffffff0000000000000000000000000000000000000000000000000000000082169050919050565b600073ffffffffffffffffffffffffffffffffffffffff82169050919050565b6000819050919050565b82818337600083830152505050565b60005b8381101561326c578082015181840152602081019050613251565b8381111561327b576000848401525b50505050565b6000600282049050600182168061329957607f821691505b602082108114156132ad576132ac61338b565b5b50919050565b60006132be82613235565b91507fffffffffffffffffffffffffffffffffffffffffffffffffffffffffffffffff8214156132f1576132f061332d565b5b600182019050919050565b600061330782613235565b915061331283613235565b9250826133225761332161335c565b5b828206905092915050565b7f4e487b7100000000000000000000000000000000000000000000000000000000600052601160045260246000fd5b7f4e487b7100000000000000000000000000000000000000000000000000000000600052601260045260246000fd5b7f4e487b7100000000000000000000000000000000000000000000000000000000600052602260045260246000fd5b7f4e487b7100000000000000000000000000000000000000000000000000000000600052604160045260246000fd5b6000601f19601f8301169050919050565b613403816131cb565b811461340e57600080fd5b50565b61341a816131dd565b811461342557600080fd5b50565b613431816131e9565b811461343c57600080fd5b50565b61344881613235565b811461345357600080fd5b5056fea264697066735822122025c601e70887e49ca44bbee3692ce47c9124f1352f9a621656961886c8cae9e564736f6c63430008000033",
  "linkReferences": {},
  "deployedLinkReferences": {}
}